{
  "contractName": "Global",
  "abi": [
    {
      "inputs": [],
      "payable": false,
      "stateMutability": "nonpayable",
      "type": "constructor"
    },
    {
      "anonymous": false,
      "inputs": [
        {
          "indexed": false,
          "internalType": "bytes32",
          "name": "id",
          "type": "bytes32"
        }
      ],
      "name": "GetId",
      "type": "event"
    },
    {
      "constant": true,
      "inputs": [
        {
          "internalType": "bytes32",
          "name": "",
          "type": "bytes32"
        }
      ],
      "name": "companies",
      "outputs": [
        {
          "internalType": "bytes32",
          "name": "id",
          "type": "bytes32"
        },
        {
          "internalType": "bool",
          "name": "isCompany",
          "type": "bool"
        },
        {
          "internalType": "int256",
          "name": "net_worth",
          "type": "int256"
        },
        {
          "internalType": "int256",
          "name": "inhand",
          "type": "int256"
        },
        {
          "internalType": "int256",
          "name": "income",
          "type": "int256"
        },
        {
          "internalType": "int256",
          "name": "tax_due",
          "type": "int256"
        },
        {
          "internalType": "int256",
          "name": "salary",
          "type": "int256"
        },
        {
          "internalType": "int256",
          "name": "vacancy",
          "type": "int256"
        }
      ],
      "payable": false,
      "stateMutability": "view",
      "type": "function"
    },
    {
      "constant": true,
      "inputs": [],
      "name": "decentralizedBank",
      "outputs": [
        {
          "internalType": "bytes32",
          "name": "id",
          "type": "bytes32"
        },
        {
          "internalType": "int256",
          "name": "inhand",
          "type": "int256"
        }
      ],
      "payable": false,
      "stateMutability": "view",
      "type": "function"
    },
    {
      "constant": true,
      "inputs": [],
      "name": "government",
      "outputs": [
        {
          "internalType": "bytes32",
          "name": "id",
          "type": "bytes32"
        },
        {
          "internalType": "int256",
          "name": "inhand",
          "type": "int256"
        },
        {
          "internalType": "int256",
          "name": "net_worth",
          "type": "int256"
        }
      ],
      "payable": false,
      "stateMutability": "view",
      "type": "function"
    },
    {
      "constant": true,
      "inputs": [
        {
          "internalType": "bytes32",
          "name": "",
          "type": "bytes32"
        }
      ],
      "name": "lenders",
      "outputs": [
        {
          "internalType": "bytes32",
          "name": "id",
          "type": "bytes32"
        },
        {
          "internalType": "bool",
          "name": "islender",
          "type": "bool"
        },
        {
          "internalType": "int256",
          "name": "ipm",
          "type": "int256"
        },
        {
          "internalType": "int256",
          "name": "iipm",
          "type": "int256"
        }
      ],
      "payable": false,
      "stateMutability": "view",
      "type": "function"
    },
    {
      "constant": true,
      "inputs": [
        {
          "internalType": "bytes32",
          "name": "",
          "type": "bytes32"
        }
      ],
      "name": "products",
      "outputs": [
        {
          "internalType": "bytes32",
          "name": "id",
          "type": "bytes32"
        },
        {
          "internalType": "bool",
          "name": "isProduct",
          "type": "bool"
        },
        {
          "internalType": "bytes32",
          "name": "company",
          "type": "bytes32"
        },
        {
          "internalType": "int256",
          "name": "cost_price",
          "type": "int256"
        },
        {
          "internalType": "int256",
          "name": "selling_price",
          "type": "int256"
        },
        {
          "internalType": "int256",
          "name": "quantity",
          "type": "int256"
        }
      ],
      "payable": false,
      "stateMutability": "view",
      "type": "function"
    },
    {
      "constant": true,
      "inputs": [
        {
          "internalType": "bytes32",
          "name": "",
          "type": "bytes32"
        }
      ],
      "name": "transactions",
      "outputs": [
        {
          "internalType": "bytes32",
          "name": "id",
          "type": "bytes32"
        },
        {
          "internalType": "bool",
          "name": "istr",
          "type": "bool"
        },
        {
          "internalType": "bytes32",
          "name": "fromid",
          "type": "bytes32"
        },
        {
          "internalType": "bytes32",
          "name": "toid",
          "type": "bytes32"
        },
        {
          "internalType": "int256",
          "name": "amount",
          "type": "int256"
        },
        {
          "internalType": "bool",
          "name": "success",
          "type": "bool"
        },
        {
          "internalType": "bytes32",
          "name": "summary",
          "type": "bytes32"
        }
      ],
      "payable": false,
      "stateMutability": "view",
      "type": "function"
    },
    {
      "constant": true,
      "inputs": [
        {
          "internalType": "bytes32",
          "name": "",
          "type": "bytes32"
        }
      ],
      "name": "users",
      "outputs": [
        {
          "internalType": "bytes32",
          "name": "id",
          "type": "bytes32"
        },
        {
          "internalType": "bool",
          "name": "isUser",
          "type": "bool"
        },
        {
          "internalType": "int256",
          "name": "net_worth",
          "type": "int256"
        },
        {
          "internalType": "int256",
          "name": "inhand",
          "type": "int256"
        },
        {
          "internalType": "int256",
          "name": "income",
          "type": "int256"
        },
        {
          "internalType": "int256",
          "name": "tax_due",
          "type": "int256"
        }
      ],
      "payable": false,
      "stateMutability": "view",
      "type": "function"
    },
    {
      "constant": true,
      "inputs": [
        {
          "internalType": "bytes32",
          "name": "id",
          "type": "bytes32"
        }
      ],
      "name": "getUserValues",
      "outputs": [
        {
          "internalType": "bytes32[]",
          "name": "",
          "type": "bytes32[]"
        },
        {
          "internalType": "bytes32[]",
          "name": "",
          "type": "bytes32[]"
        }
      ],
      "payable": false,
      "stateMutability": "view",
      "type": "function"
    },
    {
      "constant": true,
      "inputs": [
        {
          "internalType": "bytes32",
          "name": "id",
          "type": "bytes32"
        }
      ],
      "name": "getCompanyValues",
      "outputs": [
        {
          "internalType": "bytes32[]",
          "name": "",
          "type": "bytes32[]"
        },
        {
          "internalType": "bytes32[]",
          "name": "",
          "type": "bytes32[]"
        },
        {
          "internalType": "bytes32[]",
          "name": "",
          "type": "bytes32[]"
        },
        {
          "internalType": "int256[]",
          "name": "",
          "type": "int256[]"
        }
      ],
      "payable": false,
      "stateMutability": "view",
      "type": "function"
    },
    {
      "constant": true,
      "inputs": [],
      "name": "getBankValues",
      "outputs": [
        {
          "internalType": "bytes32[]",
          "name": "",
          "type": "bytes32[]"
        },
        {
          "internalType": "bytes32[]",
          "name": "",
          "type": "bytes32[]"
        },
        {
          "internalType": "bytes32[]",
          "name": "",
          "type": "bytes32[]"
        },
        {
          "internalType": "bytes32[]",
          "name": "",
          "type": "bytes32[]"
        }
      ],
      "payable": false,
      "stateMutability": "view",
      "type": "function"
    },
    {
      "constant": true,
      "inputs": [],
      "name": "getGovtValues",
      "outputs": [
        {
          "internalType": "bytes32[]",
          "name": "",
          "type": "bytes32[]"
        }
      ],
      "payable": false,
      "stateMutability": "view",
      "type": "function"
    },
    {
      "constant": false,
      "inputs": [],
      "name": "newUser",
      "outputs": [],
      "payable": false,
      "stateMutability": "nonpayable",
      "type": "function"
    },
    {
      "constant": false,
      "inputs": [],
      "name": "newCompany",
      "outputs": [],
      "payable": false,
      "stateMutability": "nonpayable",
      "type": "function"
    }
  ],
  "bytecode": "0x60806040526000600a556000600b556000600c556000600d553480156200002557600080fd5b506040518060c001604052807f646563656e7472616c697a656442616e6b69640000000000000000000000000081526020016000604051908082528060200260200182016040528015620000885781602001602082028038833980820191505090505b508152602001600081526020016000604051908082528060200260200182016040528015620000c65781602001602082028038833980820191505090505b5081526020016000604051908082528060200260200182016040528015620000fd5781602001602082028038833980820191505090505b5081526020016000604051908082528060200260200182016040528015620001345781602001602082028038833980820191505090505b50815250600080820151816000015560208201518160010190805190602001906200016192919062000288565b506040820151816002015560608201518160030190805190602001906200018a92919062000288565b506080820151816004019080519060200190620001a992919062000288565b5060a0820151816005019080519060200190620001c892919062000288565b5090505060405180608001604052807f676f7665726e6d656e74000000000000000000000000000000000000000000008152602001600081526020016000815260200160006040519080825280602002602001820160405280156200023c5781602001602082028038833980820191505090505b50815250600660008201518160000155602082015181600101556040820151816002015560608201518160030190805190602001906200027e92919062000288565b5090505062000302565b828054828255906000526020600020908101928215620002c7579160200282015b82811115620002c6578251825591602001919060010190620002a9565b5b509050620002d69190620002da565b5090565b620002ff91905b80821115620002fb576000816000905550600101620002e1565b5090565b90565b6115f580620003126000396000f3fe608060405234801561001057600080fd5b50600436106100cf5760003560e01c80638a0bdeb71161008c578063c62ac81511610066578063c62ac81514610508578063ce696c3814610563578063cea346e21461056d578063cea6ab98146106a4576100cf565b80638a0bdeb714610311578063926adba414610388578063bfd5c812146103ad576100cf565b80630f492149146100d45780632672f5261461019f578063642f2eaf146101cb5780636cebad981461023f5780637905439114610249578063891f14c5146102b2575b600080fd5b610100600480360360208110156100ea57600080fd5b810190808035906020019092919050505061070d565b604051808060200180602001838103835285818151815260200191508051906020019060200280838360005b8381101561014757808201518184015260208101905061012c565b50505050905001838103825284818151815260200191508051906020019060200280838360005b8381101561018957808201518184015260208101905061016e565b5050505090500194505050505060405180910390f35b6101a76107e9565b60405180848152602001838152602001828152602001935050505060405180910390f35b6101f7600480360360208110156101e157600080fd5b8101908080359060200190929190505050610801565b60405180888152602001871515151581526020018681526020018581526020018481526020018315151515815260200182815260200197505050505050505060405180910390f35b61024761085d565b005b6102756004803603602081101561025f57600080fd5b8101908080359060200190929190505050610ad6565b6040518087815260200186151515158152602001858152602001848152602001838152602001828152602001965050505050505060405180910390f35b6102ba610b1f565b6040518080602001828103825283818151815260200191508051906020019060200280838360005b838110156102fd5780820151818401526020810190506102e2565b505050509050019250505060405180910390f35b61033d6004803603602081101561032757600080fd5b8101908080359060200190929190505050610b7a565b60405180898152602001881515151581526020018781526020018681526020018581526020018481526020018381526020018281526020019850505050505050505060405180910390f35b610390610bcf565b604051808381526020018281526020019250505060405180910390f35b6103d9600480360360208110156103c357600080fd5b8101908080359060200190929190505050610be1565b6040518080602001806020018060200180602001858103855289818151815260200191508051906020019060200280838360005b8381101561042857808201518184015260208101905061040d565b50505050905001858103845288818151815260200191508051906020019060200280838360005b8381101561046a57808201518184015260208101905061044f565b50505050905001858103835287818151815260200191508051906020019060200280838360005b838110156104ac578082015181840152602081019050610491565b50505050905001858103825286818151815260200191508051906020019060200280838360005b838110156104ee5780820151818401526020810190506104d3565b505050509050019850505050505050505060405180910390f35b6105346004803603602081101561051e57600080fd5b8101908080359060200190929190505050610d96565b604051808581526020018415151515815260200183815260200182815260200194505050505060405180910390f35b61056b610dd3565b005b61057561111b565b6040518080602001806020018060200180602001858103855289818151815260200191508051906020019060200280838360005b838110156105c45780820151818401526020810190506105a9565b50505050905001858103845288818151815260200191508051906020019060200280838360005b838110156106065780820151818401526020810190506105eb565b50505050905001858103835287818151815260200191508051906020019060200280838360005b8381101561064857808201518184015260208101905061062d565b50505050905001858103825286818151815260200191508051906020019060200280838360005b8381101561068a57808201518184015260208101905061066f565b505050509050019850505050505050505060405180910390f35b6106d0600480360360208110156106ba57600080fd5b810190808035906020019092919050505061128b565b6040518087815260200186151515158152602001858152602001848152602001838152602001828152602001965050505050505060405180910390f35b606080600e6000848152602001908152602001600020600301600e60008581526020019081526020016000206006018180548060200260200160405190810160405280929190818152602001828054801561078757602002820191906000526020600020905b815481526020019060010190808311610773575b50505050509150808054806020026020016040519081016040528092919081815260200182805480156107d957602002820191906000526020600020905b8154815260200190600101908083116107c5575b5050505050905091509150915091565b60068060000154908060010154908060020154905083565b600f6020528060005260406000206000915090508060000154908060010160009054906101000a900460ff16908060020154908060030154908060040154908060050160009054906101000a900460ff16908060060154905087565b600a60008154809291906001019190505550600061091661087f600a546112d4565b60405160200180807f757365725f00000000000000000000000000000000000000000000000000000081525060050182805190602001908083835b602083106108dd57805182526020820191506020810190506020830392506108ba565b6001836020036101000a038019825116818451168082178552505050505050905001915050604051602081830303815290604052611401565b905061092061142c565b604051806101000160405280838152602001600115158152602001624c4b40815260200160006040519080825280602002602001820160405280156109745781602001602082028038833980820191505090505b508152602001624c4b408152602001624c4b40815260200160006040519080825280602002602001820160405280156109bc5781602001602082028038833980820191505090505b50815260200160008152509050600060040182908060018154018082558091505090600182039060005260206000200160009091929091909150555080600e60008481526020019081526020016000206000820151816000015560208201518160010160006101000a81548160ff021916908315150217905550604082015181600201556060820151816003019080519060200190610a5c929190611476565b506080820151816004015560a0820151816005015560c0820151816006019080519060200190610a8d929190611476565b5060e082015181600701559050507f54f8e3d043982f11547a8291c6090943358f249c44681634268573e41ae1d35e826040518082815260200191505060405180910390a15050565b60116020528060005260406000206000915090508060000154908060010160009054906101000a900460ff16908060020154908060030154908060040154908060050154905086565b60606006600301805480602002602001604051908101604052809291908181526020018280548015610b7057602002820191906000526020600020905b815481526020019060010190808311610b5c575b5050505050905090565b60106020528060005260406000206000915090508060000154908060010160009054906101000a900460ff169080600201549080600301549080600401549080600901549080600a01549080600b0154905088565b60008060000154908060020154905082565b6060806060806010600086815260200190815260200160002060050160106000878152602001908152602001600020600601601060008881526020019081526020016000206007016010600089815260200190815260200160002060080183805480602002602001604051908101604052809291908181526020018280548015610c8a57602002820191906000526020600020905b815481526020019060010190808311610c76575b5050505050935082805480602002602001604051908101604052809291908181526020018280548015610cdc57602002820191906000526020600020905b815481526020019060010190808311610cc8575b5050505050925081805480602002602001604051908101604052809291908181526020018280548015610d2e57602002820191906000526020600020905b815481526020019060010190808311610d1a575b5050505050915080805480602002602001604051908101604052809291908181526020018280548015610d8057602002820191906000526020600020905b815481526020019060010190808311610d6c575b5050505050905093509350935093509193509193565b60126020528060005260406000206000915090508060000154908060010160009054906101000a900460ff16908060030154908060040154905084565b600d600081548092919060010191905055506000610e8c610df5600d546112d4565b60405160200180807f636f6d70616e795f00000000000000000000000000000000000000000000000081525060080182805190602001908083835b60208310610e535780518252602082019150602081019050602083039250610e30565b6001836020036101000a038019825116818451168082178552505050505050905001915050604051602081830303815290604052611401565b9050610e966114c3565b6040518061018001604052808381526020016001151581526020016302faf08081526020016302faf08081526020016302faf08081526020016000604051908082528060200260200182016040528015610eff5781602001602082028038833980820191505090505b5081526020016000604051908082528060200260200182016040528015610f355781602001602082028038833980820191505090505b5081526020016000604051908082528060200260200182016040528015610f6b5781602001602082028038833980820191505090505b5081526020016000604051908082528060200260200182016040528015610fa15781602001602082028038833980820191505090505b508152602001600081526020016000815260200160008152509050600060030182908060018154018082558091505090600182039060005260206000200160009091929091909150555080601060008481526020019081526020016000206000820151816000015560208201518160010160006101000a81548160ff02191690831515021790555060408201518160020155606082015181600301556080820151816004015560a0820151816005019080519060200190611063929190611476565b5060c0820151816006019080519060200190611080929190611476565b5060e082015181600701908051906020019061109d929190611476565b506101008201518160080190805190602001906110bb929190611529565b50610120820151816009015561014082015181600a015561016082015181600b01559050507f54f8e3d043982f11547a8291c6090943358f249c44681634268573e41ae1d35e826040518082815260200191505060405180910390a15050565b60608060608060006004016000600301600060010160006005018380548060200260200160405190810160405280929190818152602001828054801561118057602002820191906000526020600020905b81548152602001906001019080831161116c575b50505050509350828054806020026020016040519081016040528092919081815260200182805480156111d257602002820191906000526020600020905b8154815260200190600101908083116111be575b505050505092508180548060200260200160405190810160405280929190818152602001828054801561122457602002820191906000526020600020905b815481526020019060010190808311611210575b505050505091508080548060200260200160405190810160405280929190818152602001828054801561127657602002820191906000526020600020905b815481526020019060010190808311611262575b50505050509050935093509350935090919293565b600e6020528060005260406000206000915090508060000154908060010160009054906101000a900460ff16908060020154908060040154908060050154908060070154905086565b6060600082141561131c576040518060400160405280600181526020017f300000000000000000000000000000000000000000000000000000000000000081525090506113fc565b600082905060005b60008214611346578080600101915050600a828161133e57fe5b049150611324565b6060816040519080825280601f01601f19166020018201604052801561137b5781602001600182028038833980820191505090505b50905060006001830390505b600086146113f457600a868161139957fe5b0660300160f81b828280600190039350815181106113b357fe5b60200101907effffffffffffffffffffffffffffffffffffffffffffffffffffffffffffff1916908160001a905350600a86816113ec57fe5b049550611387565b819450505050505b919050565b6000606082905060008151141561141e576000801b915050611427565b60208301519150505b919050565b604051806101000160405280600080191681526020016000151581526020016000815260200160608152602001600081526020016000815260200160608152602001600081525090565b8280548282559060005260206000209081019282156114b2579160200282015b828111156114b1578251825591602001919060010190611496565b5b5090506114bf9190611576565b5090565b60405180610180016040528060008019168152602001600015158152602001600081526020016000815260200160008152602001606081526020016060815260200160608152602001606081526020016000815260200160008152602001600081525090565b828054828255906000526020600020908101928215611565579160200282015b82811115611564578251825591602001919060010190611549565b5b509050611572919061159b565b5090565b61159891905b8082111561159457600081600090555060010161157c565b5090565b90565b6115bd91905b808211156115b95760008160009055506001016115a1565b5090565b9056fea265627a7a7231582073b7d74d62a275119d63030eba5f37c077156e0225f8cedf00cd19d6eeabb3fa64736f6c63430005100032",
  "source": "pragma solidity 0.5.16;\r\n//pragma experimental ABIEncoderV2;\r\ncontract Global{\r\n     struct DecentralizedBank{\r\n        bytes32 id;\r\n        bytes32[] transactions;\r\n        int256 inhand;\r\n        bytes32[] companies;\r\n        bytes32[] users;\r\n        bytes32[] products;\r\n    }\r\n    DecentralizedBank public decentralizedBank;\r\n    struct Government{\r\n        bytes32 id;\r\n        int256 inhand;\r\n        int256 net_worth;\r\n        bytes32[] transactions;\r\n    }\r\n    Government public government;\r\n    struct User{\r\n        bytes32 id;\r\n        bool isUser;\r\n        int256 net_worth;\r\n        bytes32[] transactions;\r\n        int256 inhand;\r\n        int256 income;\r\n        bytes32[] companies;\r\n        int256 tax_due;\r\n    }\r\n    uint256 user_count=0;\r\n    \r\n    struct Transaction{\r\n        \r\n        bytes32 id;\r\n        bool istr;\r\n        bytes32 fromid;\r\n        bytes32 toid;\r\n        int256 amount;\r\n        bool success;\r\n        bytes32 summary;\r\n    }\r\n    uint256 transaction_count=0;\r\n    struct Company{\r\n        bytes32 id;\r\n        bool isCompany;\r\n        int256 net_worth;\r\n        int256 inhand;\r\n        int256 income;\r\n        bytes32[] transactions;\r\n        bytes32[] employees;\r\n        bytes32[] products;\r\n        int256[] remaining_salary;\r\n        int256 tax_due;\r\n        int256 salary;\r\n        int256 vacancy;\r\n    }\r\n    struct Product{\r\n         bytes32 id;\r\n         bool isProduct;\r\n         bytes32 company;\r\n         int256 cost_price;\r\n         int256 selling_price;\r\n         int256 quantity;\r\n    }\r\n    uint256 products_count=0;\r\n    struct Lender{\r\n        bytes32 id;\r\n        bool islender;\r\n        bytes32[] clients;\r\n        int256 ipm;\r\n        int256 iipm;\r\n        int256[] months;\r\n        int256[] amount;\r\n    }\r\n    uint256 company_count=0;\r\n    mapping(bytes32=>User) public users;\r\n    mapping(bytes32 =>Transaction) public transactions;\r\n    mapping(bytes32=>Company) public companies;\r\n    mapping(bytes32=>Product) public products;\r\n    mapping(bytes32=>Lender) public lenders;\r\n    constructor()public{\r\n        decentralizedBank=DecentralizedBank({\r\n            id:\"decentralizedBankid\",\r\n            inhand:0,\r\n            transactions:new bytes32[](0),\r\n            users:new bytes32[](0),\r\n            companies:new bytes32[](0),\r\n            products:new bytes32[](0)\r\n        });\r\n        government=Government({\r\n            id:\"government\",\r\n            net_worth:0,\r\n            inhand:0,\r\n            transactions:new bytes32[](0)\r\n        });\r\n    }\r\n    function getUserValues(bytes32 id)public view returns (bytes32 [] memory,bytes32 [] memory){\r\n        return (users[id].transactions,users[id].companies);\r\n    }\r\n    function getCompanyValues(bytes32 id)public view returns (bytes32 [] memory,bytes32 [] memory,bytes32 [] memory,int256 [] memory){\r\n        return (companies[id].transactions,companies[id].employees,companies[id].products,companies[id].remaining_salary);\r\n    }\r\n    function getBankValues()public view returns (bytes32 [] memory, bytes32 [] memory,bytes32 [] memory,bytes32 [] memory){\r\n        return (decentralizedBank.users,decentralizedBank.companies,decentralizedBank.transactions,decentralizedBank.products);\r\n    }\r\n    function getGovtValues()public view returns(bytes32 [] memory){\r\n        return government.transactions;\r\n    }\r\n    function uint2str(uint _i) internal pure returns (string memory _uintAsString) {\r\n    if (_i == 0) {\r\n        return \"0\";\r\n    }\r\n    uint j = _i;\r\n    uint len;\r\n    while (j != 0) {\r\n        len++;\r\n        j /= 10;\r\n    }\r\n    bytes memory bstr = new bytes(len);\r\n    uint k = len - 1;\r\n    while (_i != 0) {\r\n        bstr[k--] = byte(uint8(48 + _i % 10));\r\n        _i /= 10;\r\n    }\r\n    return string(bstr);\r\n}\r\nfunction stringToBytes32(string memory source) internal pure returns (bytes32 result) {\r\n    bytes memory tempEmptyStringTest = bytes(source);\r\n    if (tempEmptyStringTest.length == 0) {\r\n        return 0x0;\r\n    }\r\n\r\n    assembly {\r\n        result := mload(add(source, 32))\r\n    }\r\n}\r\nevent GetId(bytes32 id);\r\n    function newUser() external {\r\n        user_count++;\r\n        bytes32 uid=stringToBytes32(string(abi.encodePacked(\"user_\",uint2str(user_count))));\r\n       User memory newuser=User({\r\n            id:uid,\r\n            isUser:true,\r\n            net_worth:5000000,\r\n            inhand:5000000,\r\n            transactions:new bytes32[](0),\r\n            companies:new bytes32[](0),\r\n            income:5000000,\r\n            tax_due:0\r\n        });\r\n        \r\n        decentralizedBank.users.push(uid);\r\n        users[uid]=newuser;\r\n        emit GetId(uid);\r\n    }\r\n    \r\n    \r\n    function newCompany()external{\r\n        company_count++;\r\n        bytes32 cid=stringToBytes32(string(abi.encodePacked(\"company_\",uint2str(company_count))));\r\n        Company memory newcompany=Company({\r\n            id:cid,\r\n            isCompany:true,\r\n            net_worth:50000000,\r\n            inhand:50000000,\r\n            income:50000000,\r\n            transactions:new bytes32[](0),\r\n            employees:new bytes32[](0),\r\n            products:new bytes32[](0),\r\n            remaining_salary:new int256[](0),\r\n            tax_due:0,\r\n            salary:0,\r\n            vacancy:0\r\n        });\r\n        decentralizedBank.companies.push(cid);\r\n        companies[cid]=newcompany;\r\n        emit GetId(cid);\r\n    }\r\n    \r\n}",
  "sourcePath": "D:/hack36 2021/Decentralized-Banking-System/backend/contracts/Global.sol",
  "compiler": {
    "name": "solc",
    "version": "0.5.16+commit.9c3226ce.Emscripten.clang"
  },
  "schemaVersion": "3.3.4",
  "updatedAt": "2021-04-11T03:05:20.179Z",
  "devdoc": {
    "methods": {}
  },
  "userdoc": {
    "methods": {}
  }
}