{
  "contractName": "Global",
  "abi": [
    {
      "inputs": [],
      "payable": false,
      "stateMutability": "nonpayable",
      "type": "constructor"
    },
    {
      "anonymous": false,
      "inputs": [
        {
          "indexed": false,
          "internalType": "bytes32",
          "name": "id",
          "type": "bytes32"
        }
      ],
      "name": "GetId",
      "type": "event"
    },
    {
      "constant": true,
      "inputs": [
        {
          "internalType": "bytes32",
          "name": "",
          "type": "bytes32"
        }
      ],
      "name": "companies",
      "outputs": [
        {
          "internalType": "bytes32",
          "name": "id",
          "type": "bytes32"
        },
        {
          "internalType": "bool",
          "name": "isCompany",
          "type": "bool"
        },
        {
          "internalType": "int256",
          "name": "net_worth",
          "type": "int256"
        },
        {
          "internalType": "int256",
          "name": "inhand",
          "type": "int256"
        },
        {
          "internalType": "int256",
          "name": "income",
          "type": "int256"
        },
        {
          "internalType": "int256",
          "name": "tax_due",
          "type": "int256"
        },
        {
          "internalType": "int256",
          "name": "salary",
          "type": "int256"
        },
        {
          "internalType": "int256",
          "name": "vacancy",
          "type": "int256"
        }
      ],
      "payable": false,
      "stateMutability": "view",
      "type": "function"
    },
    {
      "constant": true,
      "inputs": [],
      "name": "decentralizedBank",
      "outputs": [
        {
          "internalType": "bytes32",
          "name": "id",
          "type": "bytes32"
        },
        {
          "internalType": "int256",
          "name": "inhand",
          "type": "int256"
        }
      ],
      "payable": false,
      "stateMutability": "view",
      "type": "function"
    },
    {
      "constant": true,
      "inputs": [],
      "name": "government",
      "outputs": [
        {
          "internalType": "bytes32",
          "name": "id",
          "type": "bytes32"
        },
        {
          "internalType": "int256",
          "name": "inhand",
          "type": "int256"
        },
        {
          "internalType": "int256",
          "name": "net_worth",
          "type": "int256"
        }
      ],
      "payable": false,
      "stateMutability": "view",
      "type": "function"
    },
    {
      "constant": true,
      "inputs": [
        {
          "internalType": "bytes32",
          "name": "",
          "type": "bytes32"
        }
      ],
      "name": "lenders",
      "outputs": [
        {
          "internalType": "bytes32",
          "name": "id",
          "type": "bytes32"
        },
        {
          "internalType": "bool",
          "name": "islender",
          "type": "bool"
        },
        {
          "internalType": "int256",
          "name": "ipm",
          "type": "int256"
        },
        {
          "internalType": "int256",
          "name": "iipm",
          "type": "int256"
        }
      ],
      "payable": false,
      "stateMutability": "view",
      "type": "function"
    },
    {
      "constant": true,
      "inputs": [
        {
          "internalType": "bytes32",
          "name": "",
          "type": "bytes32"
        }
      ],
      "name": "products",
      "outputs": [
        {
          "internalType": "bytes32",
          "name": "id",
          "type": "bytes32"
        },
        {
          "internalType": "bool",
          "name": "isProduct",
          "type": "bool"
        },
        {
          "internalType": "bytes32",
          "name": "company",
          "type": "bytes32"
        },
        {
          "internalType": "int256",
          "name": "cost_price",
          "type": "int256"
        },
        {
          "internalType": "int256",
          "name": "selling_price",
          "type": "int256"
        },
        {
          "internalType": "int256",
          "name": "quantity",
          "type": "int256"
        }
      ],
      "payable": false,
      "stateMutability": "view",
      "type": "function"
    },
    {
      "constant": true,
      "inputs": [
        {
          "internalType": "bytes32",
          "name": "",
          "type": "bytes32"
        }
      ],
      "name": "transactions",
      "outputs": [
        {
          "internalType": "bytes32",
          "name": "id",
          "type": "bytes32"
        },
        {
          "internalType": "bool",
          "name": "istr",
          "type": "bool"
        },
        {
          "internalType": "bytes32",
          "name": "fromid",
          "type": "bytes32"
        },
        {
          "internalType": "bytes32",
          "name": "toid",
          "type": "bytes32"
        },
        {
          "internalType": "int256",
          "name": "amount",
          "type": "int256"
        },
        {
          "internalType": "bool",
          "name": "success",
          "type": "bool"
        },
        {
          "internalType": "bytes32",
          "name": "summary",
          "type": "bytes32"
        }
      ],
      "payable": false,
      "stateMutability": "view",
      "type": "function"
    },
    {
      "constant": true,
      "inputs": [
        {
          "internalType": "bytes32",
          "name": "",
          "type": "bytes32"
        }
      ],
      "name": "users",
      "outputs": [
        {
          "internalType": "bytes32",
          "name": "id",
          "type": "bytes32"
        },
        {
          "internalType": "bool",
          "name": "isUser",
          "type": "bool"
        },
        {
          "internalType": "int256",
          "name": "net_worth",
          "type": "int256"
        },
        {
          "internalType": "int256",
          "name": "inhand",
          "type": "int256"
        },
        {
          "internalType": "int256",
          "name": "income",
          "type": "int256"
        },
        {
          "internalType": "int256",
          "name": "tax_due",
          "type": "int256"
        }
      ],
      "payable": false,
      "stateMutability": "view",
      "type": "function"
    },
    {
      "constant": true,
      "inputs": [],
      "name": "get",
      "outputs": [
        {
          "internalType": "bytes32[]",
          "name": "",
          "type": "bytes32[]"
        },
        {
          "internalType": "bytes32[]",
          "name": "",
          "type": "bytes32[]"
        },
        {
          "internalType": "bytes32[]",
          "name": "",
          "type": "bytes32[]"
        },
        {
          "internalType": "bytes32[]",
          "name": "",
          "type": "bytes32[]"
        }
      ],
      "payable": false,
      "stateMutability": "view",
      "type": "function"
    },
    {
      "constant": false,
      "inputs": [],
      "name": "newUser",
      "outputs": [],
      "payable": false,
      "stateMutability": "nonpayable",
      "type": "function"
    },
    {
      "constant": false,
      "inputs": [],
      "name": "newCompany",
      "outputs": [],
      "payable": false,
      "stateMutability": "nonpayable",
      "type": "function"
    }
  ],
  "bytecode": "0x60806040526000600a556000600b556000600c556000600d553480156200002557600080fd5b506040518060c001604052807f646563656e7472616c697a656442616e6b69640000000000000000000000000081526020016000604051908082528060200260200182016040528015620000885781602001602082028038833980820191505090505b508152602001600081526020016000604051908082528060200260200182016040528015620000c65781602001602082028038833980820191505090505b5081526020016000604051908082528060200260200182016040528015620000fd5781602001602082028038833980820191505090505b5081526020016000604051908082528060200260200182016040528015620001345781602001602082028038833980820191505090505b50815250600080820151816000015560208201518160010190805190602001906200016192919062000288565b506040820151816002015560608201518160030190805190602001906200018a92919062000288565b506080820151816004019080519060200190620001a992919062000288565b5060a0820151816005019080519060200190620001c892919062000288565b5090505060405180608001604052807f676f7665726e6d656e74000000000000000000000000000000000000000000008152602001600081526020016000815260200160006040519080825280602002602001820160405280156200023c5781602001602082028038833980820191505090505b50815250600660008201518160000155602082015181600101556040820151816002015560608201518160030190805190602001906200027e92919062000288565b5090505062000302565b828054828255906000526020600020908101928215620002c7579160200282015b82811115620002c6578251825591602001919060010190620002a9565b5b509050620002d69190620002da565b5090565b620002ff91905b80821115620002fb576000816000905550600101620002e1565b5090565b90565b61105380620003126000396000f3fe608060405234801561001057600080fd5b506004361061009e5760003560e01c80638a0bdeb7116100665780638a0bdeb7146102ed578063926adba414610364578063c62ac81514610389578063ce696c38146103e4578063cea6ab98146103ee5761009e565b80632672f526146100a3578063642f2eaf146100cf5780636cebad98146101435780636d4ce63c1461014d5780637905439114610284575b600080fd5b6100ab610457565b60405180848152602001838152602001828152602001935050505060405180910390f35b6100fb600480360360208110156100e557600080fd5b810190808035906020019092919050505061046f565b60405180888152602001871515151581526020018681526020018581526020018481526020018315151515815260200182815260200197505050505050505060405180910390f35b61014b6104cb565b005b610155610744565b6040518080602001806020018060200180602001858103855289818151815260200191508051906020019060200280838360005b838110156101a4578082015181840152602081019050610189565b50505050905001858103845288818151815260200191508051906020019060200280838360005b838110156101e65780820151818401526020810190506101cb565b50505050905001858103835287818151815260200191508051906020019060200280838360005b8381101561022857808201518184015260208101905061020d565b50505050905001858103825286818151815260200191508051906020019060200280838360005b8381101561026a57808201518184015260208101905061024f565b505050509050019850505050505050505060405180910390f35b6102b06004803603602081101561029a57600080fd5b81019080803590602001909291905050506108b4565b6040518087815260200186151515158152602001858152602001848152602001838152602001828152602001965050505050505060405180910390f35b6103196004803603602081101561030357600080fd5b81019080803590602001909291905050506108fd565b60405180898152602001881515151581526020018781526020018681526020018581526020018481526020018381526020018281526020019850505050505050505060405180910390f35b61036c610952565b604051808381526020018281526020019250505060405180910390f35b6103b56004803603602081101561039f57600080fd5b8101908080359060200190929190505050610964565b604051808581526020018415151515815260200183815260200182815260200194505050505060405180910390f35b6103ec6109a1565b005b61041a6004803603602081101561040457600080fd5b8101908080359060200190929190505050610ce9565b6040518087815260200186151515158152602001858152602001848152602001838152602001828152602001965050505050505060405180910390f35b60068060000154908060010154908060020154905083565b600f6020528060005260406000206000915090508060000154908060010160009054906101000a900460ff16908060020154908060030154908060040154908060050160009054906101000a900460ff16908060060154905087565b600a6000815480929190600101919050555060006105846104ed600a54610d32565b60405160200180807f757365725f00000000000000000000000000000000000000000000000000000081525060050182805190602001908083835b6020831061054b5780518252602082019150602081019050602083039250610528565b6001836020036101000a038019825116818451168082178552505050505050905001915050604051602081830303815290604052610e5f565b905061058e610e8a565b604051806101000160405280838152602001600115158152602001624c4b40815260200160006040519080825280602002602001820160405280156105e25781602001602082028038833980820191505090505b508152602001624c4b408152602001624c4b408152602001600060405190808252806020026020018201604052801561062a5781602001602082028038833980820191505090505b50815260200160008152509050600060040182908060018154018082558091505090600182039060005260206000200160009091929091909150555080600e60008481526020019081526020016000206000820151816000015560208201518160010160006101000a81548160ff0219169083151502179055506040820151816002015560608201518160030190805190602001906106ca929190610ed4565b506080820151816004015560a0820151816005015560c08201518160060190805190602001906106fb929190610ed4565b5060e082015181600701559050507f54f8e3d043982f11547a8291c6090943358f249c44681634268573e41ae1d35e826040518082815260200191505060405180910390a15050565b6060806060806000600401600060030160006001016000600501838054806020026020016040519081016040528092919081815260200182805480156107a957602002820191906000526020600020905b815481526020019060010190808311610795575b50505050509350828054806020026020016040519081016040528092919081815260200182805480156107fb57602002820191906000526020600020905b8154815260200190600101908083116107e7575b505050505092508180548060200260200160405190810160405280929190818152602001828054801561084d57602002820191906000526020600020905b815481526020019060010190808311610839575b505050505091508080548060200260200160405190810160405280929190818152602001828054801561089f57602002820191906000526020600020905b81548152602001906001019080831161088b575b50505050509050935093509350935090919293565b60116020528060005260406000206000915090508060000154908060010160009054906101000a900460ff16908060020154908060030154908060040154908060050154905086565b60106020528060005260406000206000915090508060000154908060010160009054906101000a900460ff169080600201549080600301549080600401549080600901549080600a01549080600b0154905088565b60008060000154908060020154905082565b60126020528060005260406000206000915090508060000154908060010160009054906101000a900460ff16908060030154908060040154905084565b600d600081548092919060010191905055506000610a5a6109c3600d54610d32565b60405160200180807f636f6d70616e795f00000000000000000000000000000000000000000000000081525060080182805190602001908083835b60208310610a2157805182526020820191506020810190506020830392506109fe565b6001836020036101000a038019825116818451168082178552505050505050905001915050604051602081830303815290604052610e5f565b9050610a64610f21565b6040518061018001604052808381526020016001151581526020016302faf08081526020016302faf08081526020016302faf08081526020016000604051908082528060200260200182016040528015610acd5781602001602082028038833980820191505090505b5081526020016000604051908082528060200260200182016040528015610b035781602001602082028038833980820191505090505b5081526020016000604051908082528060200260200182016040528015610b395781602001602082028038833980820191505090505b5081526020016000604051908082528060200260200182016040528015610b6f5781602001602082028038833980820191505090505b508152602001600081526020016000815260200160008152509050600060030182908060018154018082558091505090600182039060005260206000200160009091929091909150555080601060008481526020019081526020016000206000820151816000015560208201518160010160006101000a81548160ff02191690831515021790555060408201518160020155606082015181600301556080820151816004015560a0820151816005019080519060200190610c31929190610ed4565b5060c0820151816006019080519060200190610c4e929190610ed4565b5060e0820151816007019080519060200190610c6b929190610ed4565b50610100820151816008019080519060200190610c89929190610f87565b50610120820151816009015561014082015181600a015561016082015181600b01559050507f54f8e3d043982f11547a8291c6090943358f249c44681634268573e41ae1d35e826040518082815260200191505060405180910390a15050565b600e6020528060005260406000206000915090508060000154908060010160009054906101000a900460ff16908060020154908060040154908060050154908060070154905086565b60606000821415610d7a576040518060400160405280600181526020017f30000000000000000000000000000000000000000000000000000000000000008152509050610e5a565b600082905060005b60008214610da4578080600101915050600a8281610d9c57fe5b049150610d82565b6060816040519080825280601f01601f191660200182016040528015610dd95781602001600182028038833980820191505090505b50905060006001830390505b60008614610e5257600a8681610df757fe5b0660300160f81b82828060019003935081518110610e1157fe5b60200101907effffffffffffffffffffffffffffffffffffffffffffffffffffffffffffff1916908160001a905350600a8681610e4a57fe5b049550610de5565b819450505050505b919050565b60006060829050600081511415610e7c576000801b915050610e85565b60208301519150505b919050565b604051806101000160405280600080191681526020016000151581526020016000815260200160608152602001600081526020016000815260200160608152602001600081525090565b828054828255906000526020600020908101928215610f10579160200282015b82811115610f0f578251825591602001919060010190610ef4565b5b509050610f1d9190610fd4565b5090565b60405180610180016040528060008019168152602001600015158152602001600081526020016000815260200160008152602001606081526020016060815260200160608152602001606081526020016000815260200160008152602001600081525090565b828054828255906000526020600020908101928215610fc3579160200282015b82811115610fc2578251825591602001919060010190610fa7565b5b509050610fd09190610ff9565b5090565b610ff691905b80821115610ff2576000816000905550600101610fda565b5090565b90565b61101b91905b80821115611017576000816000905550600101610fff565b5090565b9056fea265627a7a723158204da0f7e77c7f34f0cff085820737584976da64e0c25812881c8208775298913a64736f6c63430005100032",
  "source": "pragma solidity 0.5.16;\r\n\r\ncontract Global {\r\n    struct DecentralizedBank {\r\n        bytes32 id;\r\n        bytes32[] transactions;\r\n        int256 inhand;\r\n        bytes32[] companies;\r\n        bytes32[] users;\r\n        bytes32[] products;\r\n    }\r\n    DecentralizedBank public decentralizedBank;\r\n    struct Government {\r\n        bytes32 id;\r\n        int256 inhand;\r\n        int256 net_worth;\r\n        bytes32[] transactions;\r\n    }\r\n    Government public government;\r\n    struct User {\r\n        bytes32 id;\r\n        bool isUser;\r\n        int256 net_worth;\r\n        bytes32[] transactions;\r\n        int256 inhand;\r\n        int256 income;\r\n        bytes32[] companies;\r\n        int256 tax_due;\r\n    }\r\n    uint256 user_count = 0;\r\n\r\n    struct Transaction {\r\n        bytes32 id;\r\n        bool istr;\r\n        bytes32 fromid;\r\n        bytes32 toid;\r\n        int256 amount;\r\n        bool success;\r\n        bytes32 summary;\r\n    }\r\n    uint256 transaction_count = 0;\r\n    struct Company {\r\n        bytes32 id;\r\n        bool isCompany;\r\n        int256 net_worth;\r\n        int256 inhand;\r\n        int256 income;\r\n        bytes32[] transactions;\r\n        bytes32[] employees;\r\n        bytes32[] products;\r\n        int256[] remaining_salary;\r\n        int256 tax_due;\r\n        int256 salary;\r\n        int256 vacancy;\r\n    }\r\n    struct Product {\r\n        bytes32 id;\r\n        bool isProduct;\r\n        bytes32 company;\r\n        int256 cost_price;\r\n        int256 selling_price;\r\n        int256 quantity;\r\n    }\r\n    uint256 products_count = 0;\r\n    struct Lender {\r\n        bytes32 id;\r\n        bool islender;\r\n        bytes32[] clients;\r\n        int256 ipm;\r\n        int256 iipm;\r\n        int256[] months;\r\n        int256[] amount;\r\n    }\r\n    uint256 company_count = 0;\r\n    mapping(bytes32 => User) public users;\r\n    mapping(bytes32 => Transaction) public transactions;\r\n    mapping(bytes32 => Company) public companies;\r\n    mapping(bytes32 => Product) public products;\r\n    mapping(bytes32 => Lender) public lenders;\r\n\r\n    constructor () public {\r\n        decentralizedBank = DecentralizedBank({\r\n            id: \"decentralizedBankid\",\r\n            inhand: 0,\r\n            transactions: new bytes32[](0),\r\n            users: new bytes32[](0),\r\n            companies: new bytes32[](0),\r\n            products: new bytes32[](0)\r\n        });\r\n        government = Government({\r\n            id: \"government\",\r\n            net_worth: 0,\r\n            inhand: 0,\r\n            transactions: new bytes32[](0)\r\n        });\r\n    }\r\n\r\n    function get()\r\n        public\r\n        view\r\n        returns (\r\n            bytes32[] memory,\r\n            bytes32[] memory,\r\n            bytes32[] memory,\r\n            bytes32[] memory\r\n        )\r\n    {\r\n        return (\r\n            decentralizedBank.users,\r\n            decentralizedBank.companies,\r\n            decentralizedBank.transactions,\r\n            decentralizedBank.products\r\n        );\r\n    }\r\n\r\n    function uint2str(uint256 _i)\r\n        internal\r\n        pure\r\n        returns (string memory _uintAsString)\r\n    {\r\n        if (_i == 0) {\r\n            return \"0\";\r\n        }\r\n        uint256 j = _i;\r\n        uint256 len;\r\n        while (j != 0) {\r\n            len++;\r\n            j /= 10;\r\n        }\r\n        bytes memory bstr = new bytes(len);\r\n        uint256 k = len - 1;\r\n        while (_i != 0) {\r\n            bstr[k--] = bytes1(uint8(48 + (_i % 10)));\r\n            _i /= 10;\r\n        }\r\n        return string(bstr);\r\n    }\r\n\r\n    function stringToBytes32(string memory source)\r\n        internal\r\n        pure\r\n        returns (bytes32 result)\r\n    {\r\n        bytes memory tempEmptyStringTest = bytes(source);\r\n        if (tempEmptyStringTest.length == 0) {\r\n            return 0x0;\r\n        }\r\n\r\n        assembly {\r\n            result := mload(add(source, 32))\r\n        }\r\n    }\r\n\r\n    event GetId(bytes32 id);\r\n\r\n    function newUser() external {\r\n        user_count++;\r\n        bytes32 uid =\r\n            stringToBytes32(\r\n                string(abi.encodePacked(\"user_\", uint2str(user_count)))\r\n            );\r\n        User memory newuser =\r\n            User({\r\n                id: uid,\r\n                isUser: true,\r\n                net_worth: 5000000,\r\n                inhand: 5000000,\r\n                transactions: new bytes32[](0),\r\n                companies: new bytes32[](0),\r\n                income: 5000000,\r\n                tax_due: 0\r\n            });\r\n\r\n        decentralizedBank.users.push(uid);\r\n        users[uid] = newuser;\r\n        emit GetId(uid);\r\n    }\r\n\r\n    function newCompany() external {\r\n        company_count++;\r\n        bytes32 cid =\r\n            stringToBytes32(\r\n                string(abi.encodePacked(\"company_\", uint2str(company_count)))\r\n            );\r\n        Company memory newcompany =\r\n            Company({\r\n                id: cid,\r\n                isCompany: true,\r\n                net_worth: 50000000,\r\n                inhand: 50000000,\r\n                income: 50000000,\r\n                transactions: new bytes32[](0),\r\n                employees: new bytes32[](0),\r\n                products: new bytes32[](0),\r\n                remaining_salary: new int256[](0),\r\n                tax_due: 0,\r\n                salary: 0,\r\n                vacancy: 0\r\n            });\r\n        decentralizedBank.companies.push(cid);\r\n        companies[cid] = newcompany;\r\n        emit GetId(cid);\r\n    }\r\n}\r\n",
  "sourcePath": "D:\\Repo\\Decentralized-Banking-System\\backend\\contracts\\Global.sol",
  "compiler": {
    "name": "solc",
    "version": "0.5.16+commit.9c3226ce.Emscripten.clang"
  },
  "schemaVersion": "3.3.4",
  "updatedAt": "2021-04-10T06:57:52.131Z",
  "devdoc": {
    "methods": {}
  },
  "userdoc": {
    "methods": {}
  }
}